:03000000020003F8
:0C000300787FE4F6D8FD75811F02004AEA
:10008F00080801020408102040801010C0F9A4B025
:0C009F00999282F880908883C6A1868E1A
:0C00C5007F047E817D77DDFEDEFCDFFA2B
:0100D100220C
:1000AC00E4FC74082CF8E6F5A074102CF8E6F58046
:0900BC001200C50CBC08EB80E742
:10000F000200ACE493A3F8E493A34003F68001F25B
:10001F0008DFF48029E493A3F85407240CC8C333F2
:10002F00C4540F4420C8834004F456800146F6DFC1
:10003F00E4800B010204081020408090008FE47EC2
:10004F00019360BCA3FF543F30E509541FFEE493B6
:10005F00A360010ECF54C025E060A840B8E493A37D
:10006F00FAE493A3F8E493A3C8C582C8CAC583CAA8
:10007F00F0A3C8C582C8CAC583CADFE9DEE780BE60
:0100AB000054
:00000001FF
