:030000000200D229
:0C00D200787FE4F6D8FD75810A020087F3
:1000AB003F065B4F666D7D077F6F777C395E79719D
:0800BB007638373E735C40000B
:0400C3007FE87E0351
:0B00C700EF1FAC0670011E4C70F6220B
:100003007590F0E59064F0602E1200C3E59064F003
:100013006025AF90EF2490601B24C0601224E06041
:100023000924F07012E4F509800D75090180087543
:100033000902800375090375900FE590640F60430F
:100043001200C3E590640F6024AF90EF24F9601AA7
:1000530024FC601124FE6008147012E4F508800D7E
:1000630075080180087508028003750803C3E50A53
:10007300648094B2500DE590640F60071200C305CD
:030083000A80EA06
:010086002257
:1000870012000375F004E509A42508F582E435F0AC
:10009700F583E58224ABF582E5833400F583E493A9
:0400A700F58080DC84
:00000001FF
