:03000000020127D3
:0C012700787FE4F6D8FD75810702000324
:0901110012011A6380FF63A0FFD4
:0C011A007F027E677D93DDFEDEFCDFFAD5
:0101260022B6
:1000030079FEE4FCA804E9088002C333D8FCFBC3EF
:1000130074089CFFF8E9088002C313D8FCFA4BF577
:1000230080F5A012011A0CBC08DA7580FF75A0FFD9
:10003300E4FCA8047480088002C313D8FCF4F580A0
:10004300F5A012011A0CBC08E97580FF75A0FFE446
:10005300FCE58025E0F580E5A025E0F5A012011A76
:100063000CBC08ED7580FF75A0FFE4FCE580C313AD
:10007300F580E5A0C313F5A012011A0CBC08ED75B9
:1000830080FF75A0FFE4FC7580E775A0E712011AF5
:100093007580DB75A0DB12011A7580BD75A0BD12DA
:1000A300011A75807E75A07E12011A0CBC03D875E7
:1000B30080FF75A0FFE4FC75807E75A07E12011A97
:1000C3007580BD75A0BD12011A7580DB75A0DB12AA
:1000D300011A7580E775A0E712011A0CBC03D8E476
:1000E300FC75805575A0551201110CBC06F3E4FC98
:1000F3007580F075A0F01201110CBC06F37580FF3A
:0E01030075A0FFE4FC1201140CBC06F980FE8E
:00000001FF
