:03000000020003F8
:0C000300787FE4F6D8FD75811102004AF8
:0A012D0008080102040810204080B9
:10008F00E4F510F51130940930950630960320975A
:10009F00291201382094041510801320950405109F
:1000AF00800C2096040511800520970215113094BD
:1000BF00FD3095FA3096F73097F4C3E510648094CD
:1000CF00805003751007E51075F00812010B85F0CD
:1000DF0010C3E511648094805003751107E5117505
:1000EF00F00812010B85F01174082510F8E6F4F5ED
:0C00FF008074082511F8E6F4F5A0808953
:080138007F127EEBDEFEDFFC0E
:01014000229C
:10000F0002008FE493A3F8E493A34003F68001F278
:10001F0008DFF48029E493A3F85407240CC8C333F2
:10002F00C4540F4420C8834004F456800146F6DFC1
:10003F00E4800B010204081020408090012DE47E23
:10004F00019360BCA3FF543F30E509541FFEE493B6
:10005F00A360010ECF54C025E060A840B8E493A37D
:10006F00FAE493A3F8E493A3C8C582C8CAC583CAA8
:10007F00F0A3C8C582C8CAC583CADFE9DEE780BE60
:0101370000C7
:10010B00C2D530F707B2D563F0FF05F030E70CB27C
:10011B00D5F4048463F0FF05F080018430D502F43C
:02012B000422AC
:00000001FF
