:100A2000C0F9A4B0999282F880908883C6A1868E7E
:100A3000FF00010002000300050008000A000E008C
:100A4000110014001E00280032003C004600500037
:100A50005A00640078008C00A000B400C8012C018A
:0D0A60009001F4025802BC0320038403E857
:0B0D2500020C0000C181C18001080029
:100CBE00E4FDFCC3ED9FEC9E5015E4FBFA0BBB006C
:0F0CCE00010AEB64784A70F50DBD00010C80E45B
:010CDD0022F4
:080D3A00EF900A2093F5B022AE
:020C54008F14FB
:100C5600E4F9E9C395145018B202300204AF0B80D0
:100C6600027F10120D3A7F647E00120CBE0980E2EC
:050C7600AF0B020D3A76
:100BBC00E4F9E5A05432F51364327002FF227F0A87
:100BCC007E00120CBEE5A05432B513037F0022E563
:100BDC001320E103430101E51320E403430102E583
:090BEC001320E503430104AF01ED
:010BF50022DD
:100D0700E4F5C875CBFC75CDFCD2ADD2CAD2AF2203
:100CDE00EF25E02431F582E4340AF583E493F51030
:060CEE00740193F51122D0
:090D3100EFF4F590EEF4F58022D8
:100BF600E4F50BF509F50AF50E750F0AF590F58083
:100C060075A0FFF5B07FF47E01120CBE7590FF75DE
:100C160080FF75A0FF75B0FFAF0F120CDEAF0B02A1
:020C26000D3A85
:100C7B007E007401A80D088005C333CE33CED8F99E
:100C8B00FF120D31E50D2401FF750C00EF540FF52C
:020C9B000D2228
:100C9D007E80E4A80D088005CEC313CE13D8F9FFCE
:100CAD00120D31E50D2401FF750C00EF540FF50DFC
:010CBD002214
:100B3C003001127E007401A80D088005C333CE333A
:100B4C00CED8F9800F7E80E4A80D088005CEC313A3
:100B5C00CE13D8F9FF120D31E50D640F450C700260
:100B6C00B201E50D2401FF750C00EF540FF50D22B9
:100AB4003001127E007401A80D088005C333CE33C3
:100AC400CED8F9800F7E80E4A80D088005CEC3132C
:100AD400CE13D8F9F4FFEEF4FE120D31E50D640FD8
:100AE400450C7002B201E50D2401FF750C00EF54B2
:040AF4000FF50D22CB
:10088C003001283000127EFF74FEA80D088005C3CD
:10089C0033CE33CED8F980277E7F74FFA80D088025
:1008AC0006CEA2E713CE13D8F880273000147E7F33
:1008BC0074FFA80D088006CEA2E713CE13D8F8FF5C
:1008CC0080157EFF74FEA80D088005C333CE33CE91
:1008DC00D8F9F4FFEEF4FE120D31E50D640F450C62
:1008EC007007B201300102B200E50D2401FF750C56
:0708FC0000EF540FF50D227F
:100B7C003001127E00740FA80D088005C333CE33EC
:100B8C00CED8F9800F7EF0E4A80D088005CEC313F3
:100B9C00CE13D8F9FF120D31E50D640F450C700220
:100BAC00B201E50D2401FF750C00EF540FF50D2279
:100AF8003001127E00740FA80D088005C333CE3371
:100B0800CED8F9800F7EF0E4A80D088005CEC31377
:100B1800CE13D8F9F4FFEEF4FE120D31E50D640F93
:100B2800450C7002B201E50D2401FF750C00EF546D
:040B38000FF50D2286
:100A6D003001127E00743FA80D088005C333CE33CC
:100A7D00CED8F9800F7EFCE4A80D088005CEC313F7
:100A8D00CE13D8F9FF120D31E50D6409450C700236
:100A9D00B201E50D2401FFE4350CFE7C007D0A1248
:070AAD0009CB8C0C8D0D221A
:0E0D1700050DE50D7002050CFFAE0C020D314E
:10096F00E50BFD7C007003020C7BED64014C700302
:10097F00020C9DE50BFD7C0064027003020B3CED45
:10098F0064034C7003020AB4E50BFD7C0064047031
:10099F000302088CED64054C7003020B7CE50BFD24
:1009AF007C0064067003020AF8ED64074C700302C2
:0C09BF000A6DE50B64087003120D17228E
:03002B00020C289C
:100C2800C0E0C0F0C0D075D018C2CF050AE50A7080
:100C3800020509C39511E509951040097509007564
:0C0C48000A0012096FD0D0D0F0D0E032CA
:100903008F13E51330E01FD201E4F50CF50DD2008F
:10091300E50B2401FFE433FE7C007D091209CB8D36
:100923000BAF0B120D3AE51330E11FD3E50F940023
:10093300E50E9400400FE50F150F7002150EAF0F73
:10094300120CDE80057F06120C54E51330E21CC343
:10095300E50F941CE50E9400500C050FE50F700293
:0C096300050EFF020CDE7F06120C542271
:100CF400120BF6120D07120BBC8F12EF60F81209DB
:030D04000380F376
:03000000020800F3
:0C080000787FE4F6D8FD758120020847DF
:1009CB00BC000BBE0029EF8DF084FFADF022E4CC10
:1009DB00F875F008EF2FFFEE33FEEC33FCEE9DECD9
:1009EB00984005FCEE9DFE0FD5F0E9E4CEFD22ED1F
:1009FB00F8F5F0EE8420D21CFEADF075F008EF2F69
:100A0B00FFED33FD4007985006D5F0F222C398FD59
:050A1B000FD5F0EA22F6
:10080C00020CF4E493A3F8E493A34003F68001F202
:10081C0008DFF48029E493A3F85407240CC8C333ED
:10082C00C4540F4420C8834004F456800146F6DFBC
:10083C00E4800B0102040810204080900D25E47E1A
:10084C00019360BCA3FF543F30E509541FFEE493B1
:10085C00A360010ECF54C025E060A840B8E493A378
:10086C00FAE493A3F8E493A3C8C582C8CAC583CAA3
:10087C00F0A3C8C582C8CAC583CADFE9DEE780BE5B
:010D300000C2
:00000001FF
