:03000000020003F8
:0C000300787FE4F6D8FD75811102004AF8
:0C00A9000A083F065B4F666D7D077F6F05
:0800B6007FFC7EFEDEFEDFFC94
:0100BE00221F
:10008F00E4FCFD74082DF8E6F5801200B60DBD00F6
:0A009F00010CED640A4C70EB80E6E2
:10000F0002008FE493A3F8E493A34003F68001F278
:10001F0008DFF48029E493A3F85407240CC8C333F2
:10002F00C4540F4420C8834004F456800146F6DFC1
:10003F00E4800B01020408102040809000A9E47EA8
:10004F00019360BCA3FF543F30E509541FFEE493B6
:10005F00A360010ECF54C025E060A840B8E493A37D
:10006F00FAE493A3F8E493A3C8C582C8CAC583CAA8
:10007F00F0A3C8C582C8CAC583CADFE9DEE780BE60
:0100B500004A
:00000001FF
