:0300000002018179
:0C018100787FE4F6D8FD75810A0200F9D1
:10016E003F065B4F666D7D077F6F777C395E7971D9
:03017E000000007E
:10015900EF25E0FFEE33FE7DEFDDFEEF1F70011EA0
:04016900144E70F5CB
:01016D00226F
:1000F90078087C007D007BFF7A01797E7E007F0392
:100109001200D37580FF75A0FF7CFEAF90EF75F0EC
:100119006484F508EF75F00A8475F00A8485F0099E
:10012900EF75F00A8485F00AE4FB7801AF04EF0863
:10013900800123D8FDFCF5A074082BF8E690016E28
:1001490093F5807F0A7E001201590BBB03DC80B94D
:10000300E709F608DFFA8046E709F208DFFA803EDF
:1000130088828C83E709F0A3DFFA8032E309F608CC
:10002300DFFA8078E309F208DFFA807088828C8334
:10003300E309F0A3DFFA806489828A83E0A3F608E8
:10004300DFFA805889828A83E0A3F208DFFA804CC2
:1000530080D280FA80C680D4806980F28033801099
:1000630080A680EA809A80A880DA80E280CA803302
:1000730089828A83ECFAE493A3C8C582C8CCC5837A
:10008300CCF0A3C8C582C8CCC583CCDFE9DEE7804A
:100093000D89828A83E493A3F608DFF9ECFAA9F0C9
:1000A300EDFB2289828A83ECFAE0A3C8C582C8CC1F
:1000B300C583CCF0A3C8C582C8CCC583CCDFEADE38
:1000C300E880DB89828A83E493A3F208DFF980CC9A
:1000D30088F0EF60010E4E60C388F0ED2402B40493
:1000E3000050B9F582EB2402B4040050AF2323453A
:0600F3008223900053730C
:00000001FF
